:020000040800F2
:10000000780E002089010008B3190008B517000810
:10001000B11900088F0200085120000800000000FC
:10002000000000000000000000000000351B000878
:10003000DF02000800000000B5190008111C0008CC
:10004000A3010008A3010008A3010008A301000800
:10005000A3010008A3010008A3010008A3010008F0
:10006000A3010008A3010008A3010008A3010008E0
:10007000A3010008910200089D020008A9020008DF
:10008000A3010008A3010008A3010008A3010008C0
:10009000A3010008A3010008A3010008070300084A
:1000A000A3010008751C0008A3010008A3010008B3
:1000B000A3010008A3010008A3010008A301000890
:1000C000A3010008A3010008A3010008A301000880
:1000D000A3010008A3010008A3010008A301000870
:1000E000E1020008A3010008A301000800F002F8E3
:1000F00000F03AF80AA090E8000C82448344AAF188
:100100000107DA4501D100F02FF8AFF2090EBAE885
:100110000F0013F0010F18BFFB1A43F0010318473B
:10012000D4200000F4200000103A24BF78C878C121
:10013000FAD8520724BF30C830C144BF04680C60ED
:10014000704700000023002400250026103A28BF35
:1001500078C1FBD8520728BF30C148BF0B60704739
:100160001FB51FBD10B510BD00F058F81146FFF7C0
:10017000F7FF01F07FFF00F076F803B4FFF7F2FF1E
:1001800003BC00F07DF8000009488047094800479B
:10019000FEE7FEE7FEE7FEE7FEE7FEE7FEE7FEE737
:1001A000FEE7FEE704480549054A064B7047000094
:1001B000731C0008ED00000878020020780E002073
:1001C00078080020780800204FF0000200B51346A0
:1001D00094469646203922BFA0E80C50A0E80C5067
:1001E000B1F12001BFF4F7AF090728BFA0E80C5018
:1001F00048BF0CC05DF804EB890028BF40F8042B11
:1002000008BF704748BF20F8022B11F0804F18BF7D
:1002100000F8012B7047704770477047754600F033
:100220002BF8AE4605006946534620F00700854688
:1002300018B020B5FFF7B6FFBDE820404FF000062C
:100240004FF000074FF000084FF0000B21F00701BE
:10025000AC46ACE8C009ACE8C009ACE8C009ACE801
:10026000C0098D46704710B50446AFF300802046A4
:10027000BDE81040FFF781BF00487047140200201E
:1002800001491820ABBEFEE7260002007047FEE7DA
:10029000014800F03DB80000B8000020014800F01F
:1002A00037B80000D0010020014800F031B800004C
:1002B0008C01002030B590F840500124AC40C56B53
:1002C0006C60046863604368102B036803D0996016
:1002D0000068C26030BD9A600068C16030BD704780
:1002E00010B54FF4006000F067F94FF4805000F053
:1002F00063F94FF4005000F05FF9BDE810404FF48F
:10030000004000F059B9802000F056B972B6FEE7FF
:100310002DE9F05FC16B0C6801680B68D0F840C034
:10032000042202FA0CF2494DDFF824A1494E4A4F4B
:10033000DFF828B1DFF828E122422CD05A072AD56D
:100340000A68920603D40A6822F004020A6001686F
:10035000A94201D1042219E0514501D1402215E002
:10036000B14202D14FF4806210E0B94202D14FF4A1
:1003700080420BE0594502D14FF4802206E07145DE
:1003800002D14FF4800201E04FF080622F4908391A
:100390004A60C16A3BE04FF0020808FA0CF818EA1C
:1003A000040F4FF000094FF0010235D05FEA837867
:1003B00032D50B689B0605D40B6823F00A030B604B
:1003C00080F821200168A94201D1022219E051459B
:1003D00001D1202215E0B14202D14FF4007210E0A9
:1003E000B94202D14FF400520BE0594502D14FF40B
:1003F000003206E0714502D14FF4001201E04FF0E7
:100400000072124908394A6080F82090816A0029F8
:100410001AD0BDE8F05F0847082505FA0CF525421B
:1004200012D01B0710D50B6823F00E030B6090F859
:100430004010C36B02FA01F15960826380F82120F9
:1004400080F82090016BE2E7BDE8F09F08000240D1
:100450001C000240300002404400024058000240AC
:100460006C00024030B528B308C81349142219445F
:10047000B1FBF2F18900C163104981630221417728
:100480001A6843F6F0718A43D0E900142143D0E999
:1004900002452C4321430469214344692143846973
:1004A0002143114319600021416301224277017702
:1004B000084630BD012030BDF8FFFDBF00000240FE
:1004C00070B5044690F82000002501280CD00120CA
:1004D00084F8200094F821600020012E06D084F8D2
:1004E00020000225284670BD022070BD022684F837
:1004F0002160A0632068066826F001060660204699
:10050000FFF7D8FEE06A00282068016802D041F0B9
:100510000E0106E021F0040101602068016841F04D
:100520000A0101602068016841F001010160D9E71A
:1005300070B54FF400611E4C884205D12079401CF3
:1005400000F00300207170BD0122B0F5805F25D05E
:10055000B0F5005F24D0B0F5004F23D08028F2D151
:100560006079002580F001006071E56022702A4604
:10057000104800F022F90E482561801D2571417850
:100580000278C1EB0111C2EB42138900C3EB0222D6
:10059000807801EB02110844A06170BDA27070BDAB
:1005A000E27070BD207880F00100207070BD000006
:1005B0001000002000080140044910B50A680242FA
:1005C00002D00860FFF7B4FF10BD00001404014022
:1005D0002DE9F84FDFF8B8910024A9F1040B234668
:1005E0000F2709F1040AABF1040EC9E00125A5406B
:1005F0002A40AA427DD1674ED1F804C0ACEB060870
:10060000B44532D014DCBCF1030F3AD009DCBCF1A4
:10061000000F2AD0BCF1010F1CD0BCF1020F31D168
:100620001DE0BCF1110F17D0BCF1120F2AD119E057
:10063000B8F5881F19D006DCB8F5803F15D0B8F59D
:10064000801F1FD111E0B8F5001F0ED0B8F5041FB0
:1006500018D10AE0CB6815E0CB681B1D12E0CB680F
:1006600008330FE0CB680C330CE08B682BB1012B07
:100670004FF0080303D0456104E0042302E0056164
:1006800000E00023FF2A01D8064601E000F104063D
:100690004FEA840501D9A5F12005D6F8008007FAB4
:1006A00005FC28EA0C0803FA05F548EA0508C6F82F
:1006B00000804D68ED0062D5374DAE6946F0010609
:1006C000AE61AD6924F0030605F001050095334DD8
:1006D00006EB050CDCF80850A607360F07FA06F8FB
:1006E00025EA0805DFF8B880404503D14FF000083F
:1006F00017E044E0DFF8AC80404502D14FF001083C
:100700000FE0DFF8A480404502D14FF0020808E076
:10071000DFF89880404502D14FF0030801E04FF028
:10072000040808FA06F848EA0508CCF808804D687D
:10073000D9F80060ED024D4601D5164300E096431E
:100740002E604D68DAF80060AD02554601D51643BB
:1007500000E096432E604D68DBF80060AD035D4617
:1007600001D5164300E096432E604D68DEF8006028
:10077000ED03754601D5164300E096432E60641CD8
:100780000D682A46E5407FF431AFBDE8F88F0000E0
:100790000804014000001110001002400000014058
:1007A00000080140000C014000100140001401400D
:1007B0008068084000D0012070470AB1016170478D
:1007C0000904FBE7014880687047000050000020E2
:1007D000024881680278114481607047500000200F
:1007E000074810B5016841F010010160032000F0D6
:1007F00075F8032000F006F800F024F8002010BD82
:100800000020024070B50D4D04464FF47A712878EF
:10081000B1FBF0F00A490968B1FBF0F000F0EDFB24
:1008200048B9102C07D200222146501E00F036F89D
:1008300000206C6070BD012070BD000050000020E1
:100840005C0000200C4808B5816941F0010181611C
:10085000816901F001010091C16941F08051C161DC
:10086000C06900F0805000900448416821F0E061C8
:1008700041F00071416008BD0010024000000140DD
:10088000002809DB00F01F0201219140400980008F
:1008900000F1E020C0F8001170470000F0B40E4BEA
:1008A0001B680C46C3F30223C3F10705042D00D9CE
:1008B0000425191D072901D2002300E0DB1E0126B3
:1008C00006FA05F1491E214099409E40761E1640C9
:1008D0003143F0BC01F0BDBB0CED00E0064900F077
:1008E000070208684FF6FF03184040EA0220034A57
:1008F00010430860704700000CED00E00000FA05AE
:100900002DE9F0470F46050061D0434E306800F0F6
:100910000700B84209D2306820F007003843306041
:10092000306800F00700B84251D128683B4C81077D
:1009300012D5400703D5606840F4E0606060287815
:10094000000703D5606840F4605060606068A96883
:1009500020F0F000084360602878C00728D068685D
:10096000012810D02168022810D0890700292EDA2A
:10097000616821F0030101436160FFF723FF8046B6
:1009800041F288390DE021688903EFE78901EDE73D
:10099000FFF718FFA0EB0801494502D90320BDE885
:1009A000F0876068696800F00C00B0EB810FEFD150
:1009B000306800F00700B8420BD9306820F007001B
:1009C00038433060306800F00700B84201D00120A1
:1009D000E5E72878400705D56068E96820F4E0601D
:1009E000084360602878000706D56068296920F40C
:1009F000605040EAC100606000F038F86168084A61
:100A0000C1F30311515CC8400649086006480068FC
:100A1000FFF7F8FE0020C2E700200240001002406D
:100A2000DA2100085C000020540000200448054939
:100A300000684968044AC1F30221515CC84070470C
:100A40005C00002000100240EA210008044805492B
:100A500000684968044AC1F3C221515CC84070472C
:100A60005C00002000100240EA2100080E4A516894
:100A70000E4801F00C03042B11D0082B0FD10C48A9
:100A8000C1F38343C903C05C0AD55168084AC1F366
:100A90004041921E515C054A5043B0FBF1F0704753
:100AA00004494843704700000010024000127A00D9
:100AB000CA21000800093D002DE9F84F040070D05C
:100AC0002078C04DC00749D06868C0F38100012874
:100AD00007D06868C0F38100022809D16868C003A4
:100AE00006D52868800339D560680028E7D035E04E
:100AF0006068B0F5803F0BD010B1B0F5A02F11D0D9
:100B0000286820F480302860286820F4802002E0E3
:100B1000286840F480302860606890B1FFF752FE8A
:100B200006460AE0286840F480202860F0E700BF0D
:100B3000FFF748FE801B642873D828688003F7D528
:100B40000CE0FFF73FFE064605E000BFFFF73AFE68
:100B5000801B6428F0D828688003F7D420789A4E48
:100B600080074FF001094FF0000839D5686810F090
:100B70000C0F07D06868C0F38100022809D16868AB
:100B8000C00306D42868800714D52069012808D13D
:100B900010E02069B0B1C6F80090FFF713FE0746D9
:100BA00005E00AE1FFF70EFEC01B0228C4D8286842
:100BB0008007F7D52868616920F0F80040EAC10095
:100BC00028600DE0C6F80080FFF7FCFD074604E052
:100BD000FFF7F8FDC01B022823D828688007F7D448
:100BE000207800072CD57948A169D9B1C0F80090C8
:100BF000FFF7E8FD074604E0FFF7E4FDC01B02280D
:100C00000FD8686A8007F7D571484FF4FA51006829
:100C1000B0FBF1F0009000BF0098411E0091FAD2A5
:100C20000EE080E0C0F80080FFF7CCFD074604E04E
:100C3000FFF7C8FDC01B022875D8686A8007F7D483
:100C40002078400760D5E8690027C00008D4E8692B
:100C500040F08050E861E869012700F08050009082
:100C60005C480168C90513D40168834641F480716A
:100C70000160FFF7A7FD824606E000BFFFF7A2FD77
:100C8000A0EB0A0064284ED8DBF80000C005F5D5BB
:100C9000E06801280AD008B1052813D0286A20F09E
:100CA00001002862286A20F0040002E0286A40F06F
:100CB00001002862E06841F2883B98B1FFF782FDAD
:100CC00082460BE0286A40F004002862EEE700BF8D
:100CD000FFF778FDA0EB0A0159455AD8286A80072A
:100CE000F6D50CE0FFF76EFD824605E0FFF76AFDE2
:100CF000A0EB0A0159454CD8286A8007F6D41FB1E9
:100D0000E86920F08050E861E06988B36968C1F360
:100D10008101022944D00228C6F8608004D0FFF780
:100D200051FD044638E034E0FFF74CFD074604E08F
:100D3000FFF748FDC01B02282BD828688001F7D494
:100D4000206AB0F5803F05D16868A16820F40030C2
:100D500008436860D4E908010843696821F4741104
:100D600008436860C6F86090FFF72CFD044606E073
:100D700025E000BFFFF726FD001B022809D82868E0
:100D80008001F7D51BE000BFFFF71CFD001B022808
:100D900002D90320BDE8F88F28688001F4D40EE062
:100DA0000128F7D06868226A00F48031914204D1AA
:100DB000616A00F47010884201D00120EAE7002047
:100DC000E8E7000000100240000042428004424276
:100DD0005C00002000700040704770B5040009D02E
:100DE000606A002540B125616561A56294F85100F3
:100DF00040B10CE0012070BD6068B0F5827FF4D096
:100E0000E561F2E784F85050204600F03FF80220F8
:100E100084F851002068016821F040010160A08839
:100E2000218900F4827001F404410843A18901F48E
:100E300000610843217C01F002010843217D01F09B
:100E400001010843218B01F400710843217F01F067
:100E50003801084394F8201001F080010843218DE7
:100E600001F40051084321680860A069042101EAE7
:100E70001040216848602068C16921F40061C161A7
:100E80006565012084F85100002070BD70B586B002
:100E900000250646009501950295039500681A49BC
:100EA00088422ED11949886940F480508861886948
:100EB00000F480500490886940F0040088618869DB
:100EC000694600F004000490A020009002200190E8
:100ED000032003900E48FFF77BFB0F4C0D4820606A
:100EE0001020C4E901058020C4E903056561A561FE
:100EF0002046E561FFF7B6FA08B1FFF707FAB464D8
:100F0000666206B070BD0000003001400010024073
:100F10000008014030000240B800002070B50446CF
:100F200090F8510001281CD1C9B1C2B194F8500009
:100F3000012816D0012084F85000032084F85100C5
:100F4000002565652163A286E286A5636564256444
:100F5000A587E587A068B0F5004F04D00DE001201B
:100F600070BD022070BD2068016821F04001016061
:100F70002068016841F480410160A16C1748C86293
:100F8000A16C17488862A16C16480863A06C456381
:100F9000E38E2268216B0C32A06CFFF791FA30B11E
:100FA000606D40F01000606584F85050D7E720680D
:100FB0000168490603D4016841F04001016084F8EA
:100FC00050502068416841F020014160206841682C
:100FD00041F002014160002070BD0000D9190008F5
:100FE000E3190008B7190008012210210148FFF792
:100FF000E4BB000000080140704710B5401EB0F18E
:10100000807F01D3012010BD4FF0E02460610F21EB
:10101000601701F01EF80020A06107202061002069
:1010200010BD70477047000070B590F83C20012A51
:1010300026D0012480F83C40022280F83D2003683D
:101040005A689D6822F070060A6832435A600D4B58
:1010500002689A4208D0B2F1804F05D00A4B9A42FA
:1010600002D00A4B9A4204D1496825F08003194303
:10107000916080F83D40002180F83C10084670BD2A
:10108000022070BD002C0140000400400008004018
:1010900010B5040003D094F83D0010B107E0012022
:1010A00010BD002084F83C00204600F01FF802200C
:1010B00084F83D00211D206800F0E2FD012084F845
:1010C000460084F83E0084F83F0084F8400084F82D
:1010D000410084F8420084F8430084F8440084F816
:1010E000450084F83D00002010BD000008B50068F0
:1010F0000B49884212D10B48816941F4006181613A
:101100008069002200F40060009011461920FFF76A
:10111000C5FBBDE808401920FFF7B2BB08BD0000C1
:10112000002C01400010024090F83D10012901D030
:1011300001207047022180F83D100168CA6842F022
:101140000102CA6000680B49884208D0B0F1804FA4
:1011500005D00949884202D00849884204D18168F3
:1011600001F00701062903D0016841F00101016087
:1011700000207047002C014000040040000800409F
:1011800070B5044690F83C000025012817D00126D0
:1011900084F83C60022084F83D002068826822F0D8
:1011A000770222F47F4282600868502838D00DDC34
:1011B00020284FD005DC90B3102811D14AE002203E
:1011C00070BD302846D040280AD13BE060282FD09F
:1011D00070280DD0B0F5805F03D0B0F5005F12D05D
:1011E000012584F83D60002084F83C00284670BD4D
:1011F000CB68D1E90121206800F07EFD206881687C
:1012000041F0770109E0CB68D1E90121206800F0C5
:1012100073FD2068816841F480418160E1E719E055
:10122000CA684968206800F079FD5021206806E00E
:10123000CA684968206800F082FD6021206800F0DB
:1012400065FDCEE7CA684968206800F067FD402167
:101250002068F4E7226801461046F0E770472DE960
:10126000F04104460068C66805694FF00007A90709
:1012700013D5B10711D5F91E01610120207720682F
:1012800080698007204602D0FFF7E8FF04E000F005
:101290007EF8204600F07CF82777680716D570079F
:1012A00014D521686FF004000861022020772068BF
:1012B000806910F4407F204602D0FFF7CFFF04E0A2
:1012C00000F065F8204600F063F82777280715D569
:1012D000300713D521686FF00800086104202077DB
:1012E0002068C0698007204602D0FFF7B7FF04E0FE
:1012F00000F04DF8204600F04BF82777E80616D5A9
:10130000F00614D521686FF01000086108202077DE
:101310002068C06910F4407F204602D0FFF79EFF8E
:1013200004E000F034F8204600F032F82777E807B0
:1013300008D0F00706D021686FF001000861204650
:1013400000F028F8280608D5300606D521686FF089
:10135000800008612046FFF764FE680608D5700625
:1013600006D521686FF040000861204600F0E0F8E3
:10137000A8060AD5B00608D521686FF020000861DC
:101380002046BDE8F041FFF74DBEBDE8F081704753
:10139000704700002DE9F84F002210216048FFF748
:1013A0000CFA604C01213C2662790025002ADFF806
:1013B000788122784FF47A7004F126074FF461693E
:1013C0004FF0180A4FF4006B49D082B9E268521C02
:1013D000B2FBF0F300FB1320E26010B92069401C5F
:1013E000206152482269824201D125612170E16861
:1013F0004046814204D3B1FBF0F208FB1210E060DA
:10140000607830B1E5600022594645482561FFF714
:10141000D4F92069B0FBF6F106FB1101B980B0FBED
:10142000F6F1B1FBF6F206FB12117980B0FBF9F18F
:10143000B1FBFAF20AFB12103880E07800903949CB
:10144000A37822792631606900F076FB3549A570D2
:10145000891DE57001F1200000F08CFE53E092B987
:10146000E268521CB2FBF0F300FB1320E26000289C
:10147000A06901D1401EA06128B9217001225946FE
:101480002748FFF79AF9E1684046814204D3B1FB4F
:10149000F0F208FB1210E0606078A8B12148E56026
:1014A000801D4178C1EB01118A0001788078C1EB81
:1014B0004113C3EB012102EB01110844A06100229A
:1014C00059461748FFF779F9A069B0FBF6F106FB1A
:1014D0001101B980B0FBF6F1B1FBF6F206FB121177
:1014E0007980B0FBF9F1B1FBFAF20AFB12103880F7
:1014F000E07800900B49A37822792631E06900F06A
:101500001BFBA570E570074A21792032901D00F081
:10151000E7FDBDE8F84F0348203000F023BE00008F
:101520000008014010000020005C260580510100E9
:1015300070477047704770B5040004D094F84100BC
:10154000002510B106E0012070BD84F8405020460F
:1015500000F024F8242084F841002068C16821F4B8
:101560000051C160204600F0CFFC2068016921F4E1
:10157000904101612068416921F02A0141612068A0
:10158000C16841F40051C1606564202084F84100C5
:1015900084F842006563002070BD0000F0B585B09E
:1015A000002406460094019402940394006829499B
:1015B00088424DD12848816941F480418161816927
:1015C00001F480410491816941F0040181618069E5
:1015D000224D00F0040004904FF4007000900220AF
:1015E00001900320039069462846FEF7F1FF281575
:1015F000CDE90004694628460294FEF7E9FF194D3B
:1016000017488027C5E90004C5E9024720202C615E
:10161000C5E905402846EC61FEF724FF08B1FEF756
:1016200075FEF5636E620F4D0D484435143801C5E3
:10163000102091C50B4845F8104944306C61AC61ED
:10164000EC61FEF70FFF08B1FEF760FEB5636E6256
:1016500005B0F0BD00380140001002400008014014
:10166000580002408C01002090F84230202B01D01D
:101670000220704721B11AB10023036300F0A0BC1F
:1016800001207047F0B4294818223C2501783039F0
:1016900091FBF2F302FB1311CCB20A21B4FBF1F37C
:1016A00000F1260204703033D372B4FBF1F301FB76
:1016B0001343303313734378303B93FBF5F605FB4C
:1016C0001633DBB2B3FBF1F6437030369673B3FBDF
:1016D000F1F601FB16363036D6738678303E96FB2F
:1016E000F5F705FB1765EDB28570B5FBF1F030300D
:1016F0005074B5FBF1F001FB105030309074A2F142
:101700002C00417951B9C3EB0311C4EB4412890099
:10171000C2EB042201EB021129448161F0BC0349B0
:1017200014222631024800F007B8000016000020FD
:10173000440100207047000070B5044690F8410055
:10174000202801D0022070BD49B342B32162A28497
:10175000E28400206064212384F84130A56B114BA2
:10176000AB62A56B104BEB62A56B104B2B63A36BAD
:101770005863256813462A1DA06BFEF7A1FE216859
:101780006FF0400008602068143050E8001F41F0FE
:10179000800140E80012002AF5D1002070BD012030
:1017A00070BD0000511E0008931E0008631D000854
:1017B00070477047FEE70000114808B5416941F0E5
:1017C000010141614069002200F001000090062102
:1017D0000D20FFF763F80D20FFF752F800221146A5
:1017E0000E20FFF75BF80E20FFF74AF800221146A3
:1017F0000F20FFF753F8BDE808400F20FFF740B86F
:1018000000100240F0B585B000252A4800950195EA
:1018100002950395816941F020018161816901F0A0
:1018200020010491816941F004018161816901F025
:1018300004010491816941F00801816180691E4FB2
:1018400000F008004FF4016404900022214638465D
:10185000FEF7B3FF0126CDE9004602240294694653
:1018600038460394FEF7B4FE4BF680000090134810
:10187000CDE90106124E69463046FEF7A9FE600327
:10188000CDE90005694602943046FEF7A1FE00222C
:1018900011461720FFF702F81720FEF7F1FF00228C
:1018A00011462820FEF7FAFF2820FEF7E9FF05B0D1
:1018B000F0BD0000001002400008014000002110AF
:1018C000000C0140104810B50E4901604FF48271C0
:1018D000416000218160C1604FF400720161C0E984
:1018E00005123822C0E90721416281620A21C162E2
:1018F000FFF773FA002803D0BDE81040FEF706BDDD
:1019000010BD0000003001406000002010B586B01E
:1019100000241848009401940294039404941449F8
:10192000059401604721C0E9011440F2E731C0E9A4
:1019300003148021C0E90541FFF7AAFB08B1FEF7B7
:10194000E5FC4FF48050009069460A48FFF718FC08
:1019500008B1FEF7DBFC049404A906480594FFF7E0
:1019600063FB002801D0FEF7D1FC06B010BD0000DB
:10197000002C0140FC0000200C4810B50A49016011
:101980004FF416514160002181600C22C160C0E912
:1019900004128161C161FFF7CEFD002803D0BDE8CC
:1019A0001040FEF7B3BC10BD0038014044010020D8
:1019B000FEE7FEE7704710B5406A01684A6822F00A
:1019C00003024A60416D41F010014165012180F838
:1019D0005110FFF701FA10BD10B5406AFFF70CFB7C
:1019E00010BD38B50546446AFEF7ECFE024628688D
:1019F0000068800623D42068416821F020014160FE
:101A00002068416821F0020141606421204600F015
:101A10001AF818B1606D40F020006065A0680021E0
:101A200018B92068C26880680090E186012084F8B7
:101A30005100606D18B12046FFF7CEF938BD204641
:101A4000FFF7D2FA38BDF8B515460E460B460092A0
:101A500004460122022100F011F840B93346002269
:101A600080212046009500F009F8002804D0606D20
:101A700040F0200060650320F8BD00002DE9F84328
:101A80001E46914688460446089DFEF79BFE401B75
:101A9000351AFEF797FE074625480068C0F3CB309D
:101AA000684338E0701C37D0FEF78CFEC01BA8429C
:101AB00003D215B1009860B32CE02068416821F092
:101AC000E00141606068B0F5827F0BD1A068B0F59D
:101AD000004F02D0B0F5806F04D12068016821F07A
:101AE00040010160A06AB0F5005F09D1206801687B
:101AF00021F4005101602068016841F40051016047
:101B0000012084F85100002084F850000320BDE833
:101B1000F8830025401E00902068816838EA0100A3
:101B200004D000214945BDD10020F0E70121F9E7AB
:101B30005C0000207047000070B5002A049C25D08E
:101B400053EA040522D000253B26012A05D0022AAB
:101B50001DD00A88172A39D03AE08A883B2A01D159
:101B600003B11CB152EA030504D008E08D8001687E
:101B70003B390AE01CB18E8001683B3105E01A4414
:101B8000121B8A8001681944091B016070BD4A88D4
:101B90003B2A01D103B11CB152EA030505D00AE08A
:101BA0004D800168A1F6D451EFE724B14E80016861
:101BB00001F6D451E9E71A44121B4A80C3EB031122
:101BC0008900A4EB041201EB82011BE003B11CB1FC
:101BD00052EA030505D00AE00D80016801F5616154
:101BE000D3E724B117220A80084A01680BE01A449F
:101BF000121B0A804FF461614B436FF0E0014C43CC
:101C000003EB041102681144BFE7000070430100B8
:101C1000FEF7DEBD30B58FB028216846FEF7D4FA56
:101C200014210AA8FEF7D0FA01210804CDE900101A
:101C30000024029402250491CDE907504FF4E010EE
:101C400009906846FEF738FF08B172B6FEE70F202C
:101C5000CDE90A054FF48060CDE90C4002210AA8C5
:101C60000E94FEF74DFE002801D072B6FEE70FB0CD
:101C700030BD70470148FFF7F2BA0000FC000020B9
:101C8000F0B50268194B1A4C1A4D4FF08047984234
:101C900005D0B84203D0A04201D0A84203D122F01F
:101CA00070064A683243984205D0B84203D0A04239
:101CB00001D0A84203D122F44074CA6822434C697F
:101CC00022F08002224302608A68C2620A6882624D
:101CD000984201D109690163012141610169C90784
:101CE00003D0016921F001010161F0BD002C014028
:101CF000000400400008004010B5846842EA032256
:101D000024F47F440A432243826010BD826822F09B
:101D100070020A4342F007018160704710B5036A00
:101D2000046A24F001040462846924F0F00444EAA3
:101D3000021423F00A020A438461026210BD10B546
:101D4000036A046A24F010040462846923F0A00387
:101D500024F4704444EA023243EA011182610162D0
:101D600010BD70B5446A2068406994F84110C0F312
:101D7000C0100025212904D118B1E584204600F0C7
:101D8000B4F82068406994F84210C0F3801022290A
:101D900004D118B1E585204600F080F8606C40F071
:101DA000100060642046FFF7C5FB70BD10B501460A
:101DB000406A096809684FF0000289062ED4C2857E
:101DC00001680C3151E8003F23F4807341E800348E
:101DD000002CF5D10168143151E8003F23F00103D4
:101DE00041E80034002CF5D10168143151E8003F7E
:101DF00023F0400341E80034002CF5D1202180F885
:101E00004210016B012909D101680C3151E8003FF2
:101E100023F0100341E80034002CF5D14263016B3C
:101E2000012902D0FFF72EFC10BD818DFFF781FB49
:101E300010BD10B5406A01214163016B012902D038
:101E4000FFF778FC10BD818D4908FFF772FB10BDCC
:101E500010B50146406A09680968890616D4002150
:101E6000C1840168143151E8002F22F0800241E85A
:101E70000023002BF5D101680C3151E8002F42F00E
:101E8000400241E80023002BF5D110BDFFF790FC84
:101E900010BD10B5406AFFF78CFC10BD01680C3115
:101EA00051E8002F22F4907241E80023002BF5D175
:101EB0000168143151E8002F22F0010241E80023AB
:101EC000002BF5D1016B012909D101680C3151E8D2
:101ED000002F22F0100241E80023002BF5D1202131
:101EE00080F8421000210163704701680C3151E80D
:101EF000002F22F0C00241E80023002BF5D1202161
:101F000080F841107047000070B504460068016910
:101F1000E26821F44051114301612169A06808433E
:101F2000616908432168CA6841F20C639A4302431D
:101F3000CA6020684169A26921F44071114341617E
:101F40001E492068884202D1FEF780FD01E0FEF7BD
:101F50006DFD00EBC00101EB0012606864218000A0
:101F6000B2FBF0F3B3FBF1F36FF018067343B2FB6F
:101F7000F0F5B2FBF0F605EB8305322303EB051514
:101F8000B5FBF1F5B6FBF1F605F0F00505EB06152E
:101F9000B2FBF0F6B2FBF0F0B0FBF1F06FF018021C
:101FA000504306EB800003EB0010B0FBF1F021681A
:101FB00000F00F002844886070BD00000038014028
:101FC00038B581620446828500201346606422226F
:101FD00084F84220E56B1B4AAA62E56B1A4AEA6262
:101FE000E56B1A4A2A63E26B50630A462168E06B8C
:101FF000091DFEF765FA20680168406800902069B5
:1020000048B120680C3050E8001F41F4807140E86E
:102010000012002AF5D12068143050E8001F41F06A
:10202000010140E80012002AF5D12068143050E880
:10203000001F41F0400140E80012002AF5D10020C5
:1020400038BD0000AD1D0008331E0008631D0008E8
:10205000FEE70907090E002804DB00F1E02080F804
:102060000014704700F00F0000F1E02080F8141D0C
:1020700070470000FEF7B4FBFFF7CCFDFFF7C2FB93
:10208000FFF79AFBFFF71EFCFFF740FCFFF774FC1D
:10209000002210210D48FEF790FB0D4800F062F879
:1020A0000C48FFF741F80A4903221A390A48FFF79A
:1020B000DBFA074C094E4FF48045203C2946304658
:1020C000FEF776FB00B101206070F7E700080140E1
:1020D00030000020FC00002044010020000C0140E2
:1020E00070B584880A23B4FBF3F503FB15451C4C3B
:1020F0000029655D55718588B5FBF3F5655D157142
:102100004588B5FBF3F603FB1655655DD57045882C
:10211000B5FBF3F5655D95700588B5FBF3F603FB3C
:102120001655655D55700088B0FBF3F0205C1070AB
:102130000CD0201F03885C1CA4B20480642B06D240
:10214000FF20494202EB41018871C87170BD4FF414
:10215000FA71B4FBF1F201FB1241018070BD000085
:1021600004000020014606220148FEF7D7BE000009
:102170006000002030B40A7803889A421DD14A7862
:1021800043889A4219D18C7882880D480D4B4FF4C0
:102190000061944202D15A8001220BE05C88121B3C
:1021A0003C243C3292FBF4F504FB1522052A04D1B1
:1021B00000225A8030BCFEF700BB30BC70470000E4
:1021C0000008014000000020010202030405060788
:1021D00008090A0B0C0D0E0F101000000000000083
:1021E00000000102030406070809000000000102C4
:1021F000030400001422000800000020600000001A
:10220000280100087422000860000020180E000059
:102210004401000800000000C0F9A4B0999282F8BF
:102220008090FF0001000000000100000A00000093
:10223000000000000000000020000020000000005E
:1022400028000020C0000000000000000000000086
:1022500073657420636C6F636B3A2030313A3031B0
:102260003A30310D010000001000000000000000B5
:0422700000127A00DE
:04000005080000ED02
:00000001FF
